{
  "_format": "hh-sol-artifact-1",
  "contractName": "StorageV1",
  "sourceName": "contracts/Storage.sol",
  "abi": [
    {
      "inputs": [],
      "stateMutability": "nonpayable",
      "type": "constructor"
    },
    {
      "anonymous": false,
      "inputs": [
        {
          "indexed": false,
          "internalType": "address",
          "name": "previousAdmin",
          "type": "address"
        },
        {
          "indexed": false,
          "internalType": "address",
          "name": "newAdmin",
          "type": "address"
        }
      ],
      "name": "AdminChanged",
      "type": "event"
    },
    {
      "anonymous": false,
      "inputs": [
        {
          "indexed": true,
          "internalType": "address",
          "name": "beacon",
          "type": "address"
        }
      ],
      "name": "BeaconUpgraded",
      "type": "event"
    },
    {
      "anonymous": false,
      "inputs": [
        {
          "indexed": false,
          "internalType": "uint8",
          "name": "version",
          "type": "uint8"
        }
      ],
      "name": "Initialized",
      "type": "event"
    },
    {
      "anonymous": false,
      "inputs": [
        {
          "indexed": true,
          "internalType": "address",
          "name": "previousOwner",
          "type": "address"
        },
        {
          "indexed": true,
          "internalType": "address",
          "name": "newOwner",
          "type": "address"
        }
      ],
      "name": "OwnershipTransferStarted",
      "type": "event"
    },
    {
      "anonymous": false,
      "inputs": [
        {
          "indexed": true,
          "internalType": "address",
          "name": "previousOwner",
          "type": "address"
        },
        {
          "indexed": true,
          "internalType": "address",
          "name": "newOwner",
          "type": "address"
        }
      ],
      "name": "OwnershipTransferred",
      "type": "event"
    },
    {
      "anonymous": false,
      "inputs": [
        {
          "indexed": false,
          "internalType": "address[]",
          "name": "nodeList",
          "type": "address[]"
        }
      ],
      "name": "SNodeMappingChanged",
      "type": "event"
    },
    {
      "anonymous": false,
      "inputs": [
        {
          "indexed": true,
          "internalType": "address",
          "name": "implementation",
          "type": "address"
        }
      ],
      "name": "Upgraded",
      "type": "event"
    },
    {
      "inputs": [],
      "name": "MAX_NODE_ID",
      "outputs": [
        {
          "internalType": "uint8",
          "name": "",
          "type": "uint8"
        }
      ],
      "stateMutability": "view",
      "type": "function"
    },
    {
      "inputs": [],
      "name": "NULL_NODE",
      "outputs": [
        {
          "internalType": "uint8",
          "name": "",
          "type": "uint8"
        }
      ],
      "stateMutability": "view",
      "type": "function"
    },
    {
      "inputs": [],
      "name": "NULL_SHARD",
      "outputs": [
        {
          "internalType": "uint8",
          "name": "",
          "type": "uint8"
        }
      ],
      "stateMutability": "view",
      "type": "function"
    },
    {
      "inputs": [],
      "name": "SHARD_COUNT",
      "outputs": [
        {
          "internalType": "uint8",
          "name": "",
          "type": "uint8"
        }
      ],
      "stateMutability": "view",
      "type": "function"
    },
    {
      "inputs": [],
      "name": "acceptOwnership",
      "outputs": [],
      "stateMutability": "nonpayable",
      "type": "function"
    },
    {
      "inputs": [
        {
          "internalType": "address",
          "name": "nodeAddress_",
          "type": "address"
        }
      ],
      "name": "addNode",
      "outputs": [
        {
          "internalType": "uint8",
          "name": "",
          "type": "uint8"
        }
      ],
      "stateMutability": "nonpayable",
      "type": "function"
    },
    {
      "inputs": [
        {
          "internalType": "uint8[]",
          "name": "nodeList_",
          "type": "uint8[]"
        },
        {
          "internalType": "uint8[]",
          "name": "countersMap_",
          "type": "uint8[]"
        }
      ],
      "name": "calculateAvgPerNode",
      "outputs": [
        {
          "internalType": "uint256",
          "name": "avgPerNode_",
          "type": "uint256"
        },
        {
          "internalType": "uint256",
          "name": "demand_",
          "type": "uint256"
        }
      ],
      "stateMutability": "view",
      "type": "function"
    },
    {
      "inputs": [
        {
          "internalType": "address[]",
          "name": "nodeAddr_",
          "type": "address[]"
        }
      ],
      "name": "getAllNodeShards",
      "outputs": [
        {
          "internalType": "uint32[]",
          "name": "",
          "type": "uint32[]"
        }
      ],
      "stateMutability": "view",
      "type": "function"
    },
    {
      "inputs": [],
      "name": "getNodeAddresses",
      "outputs": [
        {
          "internalType": "address[]",
          "name": "",
          "type": "address[]"
        }
      ],
      "stateMutability": "view",
      "type": "function"
    },
    {
      "inputs": [
        {
          "internalType": "address",
          "name": "nodeAddress_",
          "type": "address"
        }
      ],
      "name": "getNodeShardsByAddr",
      "outputs": [
        {
          "internalType": "uint32",
          "name": "",
          "type": "uint32"
        }
      ],
      "stateMutability": "view",
      "type": "function"
    },
    {
      "inputs": [
        {
          "internalType": "uint16",
          "name": "protocolVersion_",
          "type": "uint16"
        },
        {
          "internalType": "address",
          "name": "validatorContract_",
          "type": "address"
        },
        {
          "internalType": "uint8",
          "name": "rfTarget_",
          "type": "uint8"
        }
      ],
      "name": "initialize",
      "outputs": [],
      "stateMutability": "nonpayable",
      "type": "function"
    },
    {
      "inputs": [
        {
          "internalType": "address",
          "name": "",
          "type": "address"
        }
      ],
      "name": "mapAddrToNodeId",
      "outputs": [
        {
          "internalType": "uint8",
          "name": "",
          "type": "uint8"
        }
      ],
      "stateMutability": "view",
      "type": "function"
    },
    {
      "inputs": [
        {
          "internalType": "uint8",
          "name": "",
          "type": "uint8"
        }
      ],
      "name": "mapNodeIdToAddr",
      "outputs": [
        {
          "internalType": "address",
          "name": "",
          "type": "address"
        }
      ],
      "stateMutability": "view",
      "type": "function"
    },
    {
      "inputs": [
        {
          "internalType": "uint8",
          "name": "",
          "type": "uint8"
        }
      ],
      "name": "mapNodeToShards",
      "outputs": [
        {
          "internalType": "uint32",
          "name": "",
          "type": "uint32"
        }
      ],
      "stateMutability": "view",
      "type": "function"
    },
    {
      "inputs": [],
      "name": "nodeCount",
      "outputs": [
        {
          "internalType": "uint8",
          "name": "",
          "type": "uint8"
        }
      ],
      "stateMutability": "view",
      "type": "function"
    },
    {
      "inputs": [
        {
          "internalType": "uint256",
          "name": "",
          "type": "uint256"
        }
      ],
      "name": "nodeIdList",
      "outputs": [
        {
          "internalType": "uint8",
          "name": "",
          "type": "uint8"
        }
      ],
      "stateMutability": "view",
      "type": "function"
    },
    {
      "inputs": [
        {
          "internalType": "uint8",
          "name": "rf_",
          "type": "uint8"
        }
      ],
      "name": "overrideRf",
      "outputs": [],
      "stateMutability": "nonpayable",
      "type": "function"
    },
    {
      "inputs": [],
      "name": "owner",
      "outputs": [
        {
          "internalType": "address",
          "name": "",
          "type": "address"
        }
      ],
      "stateMutability": "view",
      "type": "function"
    },
    {
      "inputs": [],
      "name": "pendingOwner",
      "outputs": [
        {
          "internalType": "address",
          "name": "",
          "type": "address"
        }
      ],
      "stateMutability": "view",
      "type": "function"
    },
    {
      "inputs": [],
      "name": "protocolVersion",
      "outputs": [
        {
          "internalType": "uint16",
          "name": "",
          "type": "uint16"
        }
      ],
      "stateMutability": "view",
      "type": "function"
    },
    {
      "inputs": [],
      "name": "proxiableUUID",
      "outputs": [
        {
          "internalType": "bytes32",
          "name": "",
          "type": "bytes32"
        }
      ],
      "stateMutability": "view",
      "type": "function"
    },
    {
      "inputs": [
        {
          "internalType": "address",
          "name": "nodeAddress_",
          "type": "address"
        }
      ],
      "name": "removeNode",
      "outputs": [],
      "stateMutability": "nonpayable",
      "type": "function"
    },
    {
      "inputs": [],
      "name": "renounceOwnership",
      "outputs": [],
      "stateMutability": "nonpayable",
      "type": "function"
    },
    {
      "inputs": [],
      "name": "rf",
      "outputs": [
        {
          "internalType": "uint8",
          "name": "",
          "type": "uint8"
        }
      ],
      "stateMutability": "view",
      "type": "function"
    },
    {
      "inputs": [],
      "name": "rfChangedByAdmin",
      "outputs": [
        {
          "internalType": "bool",
          "name": "",
          "type": "bool"
        }
      ],
      "stateMutability": "view",
      "type": "function"
    },
    {
      "inputs": [],
      "name": "rfTarget",
      "outputs": [
        {
          "internalType": "uint8",
          "name": "",
          "type": "uint8"
        }
      ],
      "stateMutability": "view",
      "type": "function"
    },
    {
      "inputs": [
        {
          "internalType": "address",
          "name": "nodeAddress_",
          "type": "address"
        },
        {
          "internalType": "uint32",
          "name": "bitmap_",
          "type": "uint32"
        }
      ],
      "name": "setNodeShardsByAddr",
      "outputs": [],
      "stateMutability": "nonpayable",
      "type": "function"
    },
    {
      "inputs": [
        {
          "internalType": "uint8",
          "name": "rfTarget_",
          "type": "uint8"
        }
      ],
      "name": "setRfTarget",
      "outputs": [],
      "stateMutability": "nonpayable",
      "type": "function"
    },
    {
      "inputs": [
        {
          "internalType": "address",
          "name": "addr_",
          "type": "address"
        }
      ],
      "name": "setValidatorContract",
      "outputs": [],
      "stateMutability": "nonpayable",
      "type": "function"
    },
    {
      "inputs": [],
      "name": "shuffle",
      "outputs": [
        {
          "internalType": "uint256",
          "name": "",
          "type": "uint256"
        }
      ],
      "stateMutability": "nonpayable",
      "type": "function"
    },
    {
      "inputs": [
        {
          "internalType": "address",
          "name": "newOwner",
          "type": "address"
        }
      ],
      "name": "transferOwnership",
      "outputs": [],
      "stateMutability": "nonpayable",
      "type": "function"
    },
    {
      "inputs": [
        {
          "internalType": "address",
          "name": "newImplementation",
          "type": "address"
        }
      ],
      "name": "upgradeTo",
      "outputs": [],
      "stateMutability": "nonpayable",
      "type": "function"
    },
    {
      "inputs": [
        {
          "internalType": "address",
          "name": "newImplementation",
          "type": "address"
        },
        {
          "internalType": "bytes",
          "name": "data",
          "type": "bytes"
        }
      ],
      "name": "upgradeToAndCall",
      "outputs": [],
      "stateMutability": "payable",
      "type": "function"
    },
    {
      "inputs": [],
      "name": "validatorContract",
      "outputs": [
        {
          "internalType": "address",
          "name": "",
          "type": "address"
        }
      ],
      "stateMutability": "view",
      "type": "function"
    }
  ],
  "bytecode": "0x60a06040523060805234801561001457600080fd5b50608051613bac61004c600039600081816108c30152818161094801528181610b6201528181610be70152610cd10152613bac6000f3fe6080604052600436106102195760003560e01c8063893f5da91161011d578063bac506e0116100b0578063d85707d51161007f578063f143896811610064578063f143896814610667578063f2fde38b1461067c578063fe92fe861461069c57600080fd5b8063d85707d514610629578063e30c39781461064957600080fd5b8063bac506e0146105a2578063cc59a6f4146105bc578063cdf64a76146105dc578063d12be06b146105fc57600080fd5b80639fc8ded3116100ec5780639fc8ded31461051e578063a25d526f14610533578063a5129cd014610562578063b2b99ec91461058257600080fd5b8063893f5da91461048e5780638da5cb5b146104bf57806399439089146104dd5780639d95f1cc146104fe57600080fd5b806345954486116101b0578063633207ae1161017f578063715018a611610164578063715018a61461044f578063720a0fa41461046457806379ba50971461047957600080fd5b8063633207ae146104255780636da49b831461043a57600080fd5b8063459544861461039657806348570569146103c85780634f1ef286146103fd57806352d1902d1461041057600080fd5b80632e949824116101ec5780632e949824146102e657806330cdb2751461030857806333083fe6146103565780633659cfe61461037657600080fd5b806301b9e4381461021e5780631a27e21c1461026b5780632520bf041461028d5780632ae9c600146102b0575b600080fd5b34801561022a57600080fd5b506102516102393660046134d4565b60fe6020526000908152604090205463ffffffff1681565b60405163ffffffff90911681526020015b60405180910390f35b34801561027757600080fd5b5061028b6102863660046134d4565b6106bc565b005b34801561029957600080fd5b506102a261070a565b604051908152602001610262565b3480156102bc57600080fd5b50610102546102d390600160a01b900461ffff1681565b60405161ffff9091168152602001610262565b3480156102f257600080fd5b506102fb610741565b60405161026291906134ef565b34801561031457600080fd5b5061033e6103233660046134d4565b60fd602052600090815260409020546001600160a01b031681565b6040516001600160a01b039091168152602001610262565b34801561036257600080fd5b50610251610371366004613553565b61082d565b34801561038257600080fd5b5061028b610391366004613553565b6108b9565b3480156103a257600080fd5b506103b66103b136600461356e565b610a34565b60405160ff9091168152602001610262565b3480156103d457600080fd5b506103e86103e3366004613664565b610a68565b60408051928352602083019190915201610262565b61028b61040b3660046136c8565b610b58565b34801561041c57600080fd5b506102a2610cc4565b34801561043157600080fd5b506103b660fe81565b34801561044657600080fd5b5060fc546103b6565b34801561045b57600080fd5b5061028b610d89565b34801561047057600080fd5b506103b6600081565b34801561048557600080fd5b5061028b610d9d565b34801561049a57600080fd5b506103b66104a9366004613553565b60ff602081905260009182526040909120541681565b3480156104cb57600080fd5b506033546001600160a01b031661033e565b3480156104e957600080fd5b506101025461033e906001600160a01b031681565b34801561050a57600080fd5b506103b6610519366004613553565b610e28565b34801561052a57600080fd5b506103b660ff81565b34801561053f57600080fd5b5060fb5461055290610100900460ff1681565b6040519015158152602001610262565b34801561056e57600080fd5b5061028b61057d3660046134d4565b6110fc565b34801561058e57600080fd5b5061028b61059d366004613553565b61117c565b3480156105ae57600080fd5b5060fb546103b69060ff1681565b3480156105c857600080fd5b5061028b6105d736600461376e565b611537565b3480156105e857600080fd5b5061028b6105f7366004613553565b6115d5565b34801561060857600080fd5b5061061c6106173660046137ae565b611600565b604051610262919061383b565b34801561063557600080fd5b5060fb546103b69062010000900460ff1681565b34801561065557600080fd5b506065546001600160a01b031661033e565b34801561067357600080fd5b506103b6602081565b34801561068857600080fd5b5061028b610697366004613553565b6116f3565b3480156106a857600080fd5b5061028b6106b7366004613879565b611764565b6106c4611902565b60fb805462ff000019166201000060ff84169081029190911790915560fc548111156106ef575060fc545b60fb805461ffff191660ff9092169190911761010017905550565b6000610714611902565b60fb5460009061072d90610100900460ff16828061195c565b60fb805461ff001916905560ff1691505090565b60fc5460609060008167ffffffffffffffff81111561076257610762613587565b60405190808252806020026020018201604052801561078b578160200160208202803683370190505b50905060005b8281101561082657600060fc82815481106107ae576107ae6138c5565b600091825260208083208183040154601f9092166101000a90910460ff1680835260fd90915260409091205484519192506001600160a01b0316908490849081106107fb576107fb6138c5565b6001600160a01b0390921660209283029190910190910152508061081e816138f1565b915050610791565b5092915050565b6001600160a01b038116600090815260ff60208190526040822054168061089b5760405162461bcd60e51b815260206004820152600c60248201527f6e6f2073756368206e6f6465000000000000000000000000000000000000000060448201526064015b60405180910390fd5b60ff16600090815260fe602052604090205463ffffffff1692915050565b6001600160a01b037f00000000000000000000000000000000000000000000000000000000000000001630036109465760405162461bcd60e51b815260206004820152602c60248201527f46756e6374696f6e206d7573742062652063616c6c6564207468726f7567682060448201526b19195b1959d85d1958d85b1b60a21b6064820152608401610892565b7f00000000000000000000000000000000000000000000000000000000000000006001600160a01b03166109a17f360894a13ba1a3210667c828492db98dca3e2076cc3735a920a3ca505d382bbc546001600160a01b031690565b6001600160a01b031614610a0c5760405162461bcd60e51b815260206004820152602c60248201527f46756e6374696f6e206d7573742062652063616c6c6564207468726f7567682060448201526b6163746976652070726f787960a01b6064820152608401610892565b610a1581611ec3565b60408051600080825260208201909252610a3191839190611ecb565b50565b60fc8181548110610a4457600080fd5b9060005260206000209060209182820401919006915054906101000a900460ff1681565b815160fb54600091829160ff918216918391610a869116602061390a565b905060008215610a9f57610a9a8383613937565b610aa2565b60005b90506000610ab0848461394b565b1115610ac457610ac181600161395f565b90505b6000805b8851811015610b4a576000898281518110610ae557610ae56138c5565b602002602001015190506000898260ff1681518110610b0657610b066138c5565b60200260200101519050848160ff161015610b3557610b2860ff821686613972565b610b32908561395f565b93505b50508080610b42906138f1565b915050610ac8565b509097909650945050505050565b6001600160a01b037f0000000000000000000000000000000000000000000000000000000000000000163003610be55760405162461bcd60e51b815260206004820152602c60248201527f46756e6374696f6e206d7573742062652063616c6c6564207468726f7567682060448201526b19195b1959d85d1958d85b1b60a21b6064820152608401610892565b7f00000000000000000000000000000000000000000000000000000000000000006001600160a01b0316610c407f360894a13ba1a3210667c828492db98dca3e2076cc3735a920a3ca505d382bbc546001600160a01b031690565b6001600160a01b031614610cab5760405162461bcd60e51b815260206004820152602c60248201527f46756e6374696f6e206d7573742062652063616c6c6564207468726f7567682060448201526b6163746976652070726f787960a01b6064820152608401610892565b610cb482611ec3565b610cc082826001611ecb565b5050565b6000306001600160a01b037f00000000000000000000000000000000000000000000000000000000000000001614610d645760405162461bcd60e51b815260206004820152603860248201527f555550535570677261646561626c653a206d757374206e6f742062652063616c60448201527f6c6564207468726f7567682064656c656761746563616c6c00000000000000006064820152608401610892565b507f360894a13ba1a3210667c828492db98dca3e2076cc3735a920a3ca505d382bbc90565b610d91611902565b610d9b6000612070565b565b60655433906001600160a01b03168114610e1f5760405162461bcd60e51b815260206004820152602960248201527f4f776e61626c6532537465703a2063616c6c6572206973206e6f74207468652060448201527f6e6577206f776e657200000000000000000000000000000000000000000000006064820152608401610892565b610a3181612070565b610102546000906001600160a01b0316331480610e4f57506033546001600160a01b031633145b610e9b5760405162461bcd60e51b815260206004820181905260248201527f4f776e61626c653a2063616c6c6572206973206e6f7420746865206f776e65726044820152606401610892565b6001600160a01b038216600090815260ff60208190526040909120541615610f055760405162461bcd60e51b815260206004820152601d60248201527f6164647265737320697320616c726561647920726567697374657265640000006044820152606401610892565b6101005460ff1615801590610f2257506101005460fe60ff909116105b610f6e5760405162461bcd60e51b815260206004820152601a60248201527f6e6f64654964203e2030202626206e6f64654964203c206d61780000000000006044820152606401610892565b610101546000908015610ffc57610101610f89600183613972565b81548110610f9957610f996138c5565b90600052602060002090602091828204019190069054906101000a900460ff169150610101805480610fcd57610fcd613985565b60019003818190600052602060002090602091828204019190066101000a81549060ff0219169055905561102b565b610100805460ff169060006110108361399b565b91906101000a81548160ff021916908360ff16021790555091505b60fc8054600181810190925560208082047f371f36870d18f32a11fea0f144b021c8b407bb50f8e0267c711123f454b963c001805460ff808816601f9095166101000a8581029082021990921691909117909155600083815260fd8352604080822080546001600160a01b038c166001600160a01b031990911681179091558252918352818120805460ff19168517905592835260fe9091528120805463ffffffff19169055906110db90612089565b90506110e98160008061195c565b50506101005460ff16925050505b919050565b611104611902565b60fc5460ff821611156111595760405162461bcd60e51b815260206004820152601b60248201527f7266206973206c696d69746564206279206e6f646520636f756e7400000000006044820152606401610892565b60fb805461010060ff9390931661ffff19909116179190911762ff000019169055565b610102546001600160a01b03163314806111a057506033546001600160a01b031633145b6111ec5760405162461bcd60e51b815260206004820181905260248201527f4f776e61626c653a2063616c6c6572206973206e6f7420746865206f776e65726044820152606401610892565b6001600160a01b038116600090815260ff60208181526040832054610101805460018101825594529083047f109ea3cebb188b9c1b9fc5bb3920be60dfdc8699098dff92f3d80daaca747689018054601f9094166101000a918316828102929093021990931617909155806112a35760405162461bcd60e51b815260206004820152601060248201527f6e6f206164647265737320666f756e64000000000000000000000000000000006044820152606401610892565b60fc54600003611317576001600160a01b038216600090815260ff602052604090819020805460ff191690555162461bcd60e51b81526108929060040160208082526010908201527f6e6f206e6f646520696420666f756e6400000000000000000000000000000000604082015260600190565b60ff8116600090815260fe60205260408120805463ffffffff19811690915560fc5463ffffffff909116915b81811015611465578360ff1660fc8281548110611362576113626138c5565b60009182526020918290209181049091015460ff601f9092166101000a9004160361145357611392600183613972565b81146114135760fc6113a5600184613972565b815481106113b5576113b56138c5565b90600052602060002090602091828204019190069054906101000a900460ff1660fc82815481106113e8576113e86138c5565b90600052602060002090602091828204019190066101000a81548160ff021916908360ff1602179055505b60fc80548061142457611424613985565b60019003818190600052602060002090602091828204019190066101000a81549060ff02191690559055611465565b8061145d816138f1565b915050611343565b5060ff8316600090815260fd6020526040812080546001600160a01b0319169055611491600019612089565b604080516001808252818301909252919250600091906020808301908036833701905050905085816000815181106114cb576114cb6138c5565b60200260200101906001600160a01b031690816001600160a01b0316815250507fb338e44b9e4e2d94df983fde422fd91ba2bd6f8182b607b50c968f8161bcf8858160405161151a91906134ef565b60405180910390a161152e8260018661195c565b50505050505050565b61153f611902565b6001600160a01b038216600090815260ff602081905260409091205416806115a95760405162461bcd60e51b815260206004820152601e60248201527f6e6f64652061646472657373206973206e6f74207265676973746572656400006044820152606401610892565b60ff16600090815260fe60205260409020805463ffffffff191663ffffffff9290921691909117905550565b6115dd611902565b61010280546001600160a01b0319166001600160a01b0392909216919091179055565b60606000825167ffffffffffffffff81111561161e5761161e613587565b604051908082528060200260200182016040528015611647578160200160208202803683370190505b50905060005b835181101561082657600060ff600086848151811061166e5761166e6138c5565b6020908102919091018101516001600160a01b0316825281810192909252604090810160009081205460ff1680825260fe9093522054845191925063ffffffff169081908590859081106116c4576116c46138c5565b602002602001019063ffffffff16908163ffffffff1681525050505080806116eb906138f1565b91505061164d565b6116fb611902565b606580546001600160a01b0383166001600160a01b0319909116811790915561172c6033546001600160a01b031690565b6001600160a01b03167f38d16b8cac22d99fc7c124b9cd0de2d3fa1faef420bfe791d8c362d765e2270060405160405180910390a350565b600054610100900460ff16158080156117845750600054600160ff909116105b8061179e5750303b15801561179e575060005460ff166001145b6118105760405162461bcd60e51b815260206004820152602e60248201527f496e697469616c697a61626c653a20636f6e747261637420697320616c72656160448201527f647920696e697469616c697a65640000000000000000000000000000000000006064820152608401610892565b6000805460ff191660011790558015611833576000805461ff0019166101001790555b61183b612120565b61184361218b565b6101008054600160ff1990911617905560fb8054610102805462ff00ff199092166201000060ff871602179092557fffffffffffffffffffff0000000000000000000000000000000000000000000016600160a01b61ffff8716026001600160a01b031916176001600160a01b03851617905580156118fc576000805461ff0019169055604051600181527f7f26b83ff96e1f2b6a682f133852f6798a09c465da95921460cefb38474024989060200160405180910390a15b50505050565b6033546001600160a01b03163314610d9b5760405162461bcd60e51b815260206004820181905260248201527f4f776e61626c653a2063616c6c6572206973206e6f7420746865206f776e65726044820152606401610892565b60008060fc8054806020026020016040519081016040528092919081815260200182805480156119c957602002820191906000526020600020906000905b825461010083900a900460ff1681526020600192830181810494850194909303909202910180841161199a5790505b505060fb549394505060ff90921691505060fe811115611a2b5760405162461bcd60e51b815260206004820152600660248201527f62616420726600000000000000000000000000000000000000000000000000006044820152606401610892565b815160ff11611a7c5760405162461bcd60e51b815260206004820152600e60248201527f626164206e6f646520636f756e740000000000000000000000000000000000006044820152606401610892565b6000805b8351811015611acc576000848281518110611a9d57611a9d6138c5565b602002602001015190508260ff168160ff161115611ab9578092505b5080611ac4816138f1565b915050611a80565b5060fe60ff821610611add57600080fd5b6000611aea8260016139ba565b60ff1667ffffffffffffffff811115611b0557611b05613587565b604051908082528060200260200182016040528015611b2e578160200160208202803683370190505b5090506000611b3e8360016139ba565b60ff1667ffffffffffffffff811115611b5957611b59613587565b604051908082528060200260200182016040528015611b82578160200160208202803683370190505b50905060005b8551811015611c59576000868281518110611ba557611ba56138c5565b6020026020010151905060018160ff161015611c035760405162461bcd60e51b815260206004820152601160248201527f6e6f6465732061726520312062617365640000000000000000000000000000006044820152606401610892565b60ff8116600081815260fe6020526040902054845163ffffffff9091169185918110611c3157611c316138c5565b63ffffffff909216602092830291909101909101525080611c51816138f1565b915050611b88565b506000611c6b868385888e8e8e6121ff565b60fc5490915015611ce5576000611c8387868561264b565b9050611c948288838688600061277a565b50600080611ca28984610a68565b90925090505b8015611ce1576000611cbc8a85888a6129a0565b90508015611cd557611cce8183613972565b9150611cdb565b50611ce1565b50611ca8565b5050505b600060015b84518160ff161015611d8a576000858260ff1681518110611d0d57611d0d6138c5565b602002602001015160ff161115611d78576000848260ff1681518110611d3557611d356138c5565b60209081029190910181015160ff8416600090815260fe9092526040909120805463ffffffff191663ffffffff8316179055905082611d738161399b565b935050505b80611d828161399b565b915050611cea565b5060008160ff1667ffffffffffffffff811115611da957611da9613587565b604051908082528060200260200182016040528015611dd2578160200160208202803683370190505b509050600060015b86518160ff161015611e7a576000878260ff1681518110611dfd57611dfd6138c5565b602002602001015160ff161115611e685760ff8116600090815260fd60205260409020546001600160a01b03168383611e35816138f1565b945081518110611e4757611e476138c5565b60200260200101906001600160a01b031690816001600160a01b0316815250505b80611e728161399b565b915050611dda565b507fb338e44b9e4e2d94df983fde422fd91ba2bd6f8182b607b50c968f8161bcf88582604051611eaa91906134ef565b60405180910390a150909b9a5050505050505050505050565b610a31611902565b7f4910fdfa16fed3260ed0e7147f7cc6da11a60208b5b9406d12a635614ffd91435460ff1615611f0357611efe83612c7a565b505050565b826001600160a01b03166352d1902d6040518163ffffffff1660e01b8152600401602060405180830381865afa925050508015611f5d575060408051601f3d908101601f19168201909252611f5a918101906139d3565b60015b611fcf5760405162461bcd60e51b815260206004820152602e60248201527f45524331393637557067726164653a206e657720696d706c656d656e7461746960448201527f6f6e206973206e6f7420555550530000000000000000000000000000000000006064820152608401610892565b7f360894a13ba1a3210667c828492db98dca3e2076cc3735a920a3ca505d382bbc81146120645760405162461bcd60e51b815260206004820152602960248201527f45524331393637557067726164653a20756e737570706f727465642070726f7860448201527f6961626c655555494400000000000000000000000000000000000000000000006064820152608401610892565b50611efe838383612d38565b606580546001600160a01b0319169055610a3181612d5d565b60fb54600090610100900460ff1680156120a95760fb805461ff00191690555b60fb5460ff1660006120bb85836139ec565b60fb5490915062010000900460ff16158015906120d9575060008112155b80156120f0575060fb5462010000900460ff168113155b80156120fe575060fc548113155b156121175760fb805460ff191660ff8316179055600192505b50909392505050565b600054610100900460ff16610d9b5760405162461bcd60e51b815260206004820152602b60248201527f496e697469616c697a61626c653a20636f6e7472616374206973206e6f74206960448201526a6e697469616c697a696e6760a81b6064820152608401610892565b600054610100900460ff166121f65760405162461bcd60e51b815260206004820152602b60248201527f496e697469616c697a61626c653a20636f6e7472616374206973206e6f74206960448201526a6e697469616c697a696e6760a81b6064820152608401610892565b610d9b33612070565b6060808415801561220e575083155b15612229575050604080516000815260208101909152612640565b83156122be576040805160208082526104208201909252908082016104008036833701905050905060005b602060ff821610156122b65761226a8482612daf565b60ff1660011461227b5760ff61227d565b805b828260ff1681518110612292576122926138c5565b60ff90921660209283029190910190910152806122ae8161399b565b915050612254565b509050612640565b6122c960208761390a565b67ffffffffffffffff8111156122e1576122e1613587565b60405190808252806020026020018201604052801561230a578160200160208202803683370190505b5090506000805b8781101561237d5760005b602060ff8216101561236a57808484612334816138f1565b955081518110612346576123466138c5565b60ff90921660209283029190910190910152806123628161399b565b91505061231c565b5080612375816138f1565b915050612311565b5060005b8a518110156124fe5760008b828151811061239e5761239e6138c5565b602002602001015160ff16905060008b82815181106123bf576123bf6138c5565b6020026020010151905060005b602060ff821610156124bb576123e28282612daf565b60ff16156124a95760001960005b8751811015612439578260ff1688828151811061240f5761240f6138c5565b602002602001015160ff160361242757809150612439565b80612431816138f1565b9150506123f0565b50801961247e57600160ff83161b19831692508c848151811061245e5761245e6138c5565b6020026020010180518091906124739061399b565b60ff169052506124a7565b60ff878281518110612492576124926138c5565b602002602001019060ff16908160ff16815250505b505b806124b38161399b565b9150506123cc565b50808c83815181106124cf576124cf6138c5565b602002602001019063ffffffff16908163ffffffff1681525050505080806124f6906138f1565b915050612381565b506000805b83518110156125525760ff8016848281518110612522576125226138c5565b602002602001015160ff1603612540578161253c816138f1565b9250505b8061254a816138f1565b915050612503565b5060008184516125629190613972565b67ffffffffffffffff81111561257a5761257a613587565b6040519080825280602002602001820160405280156125a3578160200160208202803683370190505b5090506000805b85518110156126375760ff80168682815181106125c9576125c96138c5565b602002602001015160ff1614612625578581815181106125eb576125eb6138c5565b6020026020010151838381518110612605576126056138c5565b60ff9092166020928302919091019091015281612621816138f1565b9250505b8061262f816138f1565b9150506125aa565b50909450505050505b979650505050505050565b6060600061265a8460016139ba565b60ff1667ffffffffffffffff81111561267557612675613587565b60405190808252806020026020018201604052801561269e578160200160208202803683370190505b50905060005b85518110156127715760008682815181106126c1576126c16138c5565b602002602001015190506000858260ff16815181106126e2576126e26138c5565b602002602001015190506000805b602060ff82161015612730576127068382612daf565b60ff1660010361271e578161271a8161399b565b9250505b806127288161399b565b9150506126f0565b5080858460ff1681518110612747576127476138c5565b602002602001019060ff16908160ff16815250505050508080612769906138f1565b9150506126a4565b50949350505050565b6000865160000361278d57506000612996565b6127978686612dc5565b6000805b88518110156129925760008982815181106127b8576127b86138c5565b6020026020010151905060ff80168160ff16036127d55750612980565b60005b89518160ff16101561297d5760008a8260ff16815181106127fb576127fb6138c5565b6020026020010151905060008760ff1611801561283a57508660ff168a8260ff168151811061282c5761282c6138c5565b602002602001015160ff1610155b15612845575061296b565b6000898260ff168151811061285c5761285c6138c5565b6020026020010151905060006128728286612daf565b90508060ff166000036129675760ff8e8781518110612893576128936138c5565b60ff928316602091820292909201015260019086161b82178b8460ff16815181106128c0576128c06138c5565b602002602001019063ffffffff16908163ffffffff16815250508b8360ff16815181106128ef576128ef6138c5565b6020026020010180518091906129049061399b565b60ff1660ff1681525050898360ff1681518110612923576129236138c5565b6020026020010180518091906129389061399b565b60ff1660ff16815250506129528d8d8660ff166001612dec565b8661295c816138f1565b97505050505061297d565b5050505b806129758161399b565b9150506127d8565b50505b8061298a816138f1565b91505061279b565b5090505b9695505050505050565b600084516000036129b357506000612c72565b6129bd8585612dc5565b600080600187516129ce9190613972565b90506129d86134a4565b81831015612c6a5760008884815181106129f4576129f46138c5565b602002602001015190506000898481518110612a1257612a126138c5565b602002602001015190506000888360ff1681518110612a3357612a336138c5565b602002602001015119898360ff1681518110612a5157612a516138c5565b60200260200101518a8560ff1681518110612a6e57612a6e6138c5565b6020026020010151181690508063ffffffff16600014612c47576000612a94828661302a565b9050612ac58a8460ff1681518110612aae57612aae6138c5565b602002602001015182600160ff919091161b191690565b8a8460ff1681518110612ada57612ada6138c5565b602002602001019063ffffffff16908163ffffffff16815250508a8360ff1681518110612b0957612b096138c5565b602002602001018051809190612b1e90613a14565b60ff1660ff1681525050888360ff1681518110612b3d57612b3d6138c5565b602002602001018051809190612b529061399b565b60ff1660ff1681525050612b8a8a8560ff1681518110612b7457612b746138c5565b602002602001015182600160ff919091161b1790565b8a8560ff1681518110612b9f57612b9f6138c5565b602002602001019063ffffffff16908163ffffffff16815250508a8460ff1681518110612bce57612bce6138c5565b602002602001018051809190612be39061399b565b60ff1660ff1681525050888460ff1681518110612c0257612c026138c5565b602002602001018051809190612c179061399b565b60ff16905250612c2a8c8c896001612dec565b612c378c8c886000612dec565b6001975050505050505050612c72565b85612c51816138f1565b9650508480612c5f90613a31565b9550505050506129d8565b600093505050505b949350505050565b6001600160a01b0381163b612cf75760405162461bcd60e51b815260206004820152602d60248201527f455243313936373a206e657720696d706c656d656e746174696f6e206973206e60448201527f6f74206120636f6e7472616374000000000000000000000000000000000000006064820152608401610892565b7f360894a13ba1a3210667c828492db98dca3e2076cc3735a920a3ca505d382bbc80546001600160a01b0319166001600160a01b0392909216919091179055565b612d4183613152565b600082511180612d4e5750805b15611efe576118fc8383613192565b603380546001600160a01b038381166001600160a01b0319831681179093556040519116919082907f8be0079c531659141344cd1fd0a4f28419497f9722a3daafe3b4186f6b6457e090600090a35050565b600163ffffffff831660ff83161c165b92915050565b8151600003612dd2575050565b610cc08282600060018651612de79190613972565b6131be565b818115612ec7575b6000612e018260016139ec565b12158015612e26575060018551612e189190613972565b612e238260016139ec565b13155b8015612eab57508385612e3a8360016139ec565b81518110612e4a57612e4a6138c5565b602002602001015160ff1681518110612e6557612e656138c5565b602002602001015160ff1684868581518110612e8357612e836138c5565b602002602001015160ff1681518110612e9e57612e9e6138c5565b602002602001015160ff16115b15612ec25780612eba81613a48565b915050612df4565b612f95565b6000612ed4600183613a79565b12158015612ef9575060018551612eeb9190613972565b612ef6600183613a79565b13155b8015612f7e57508385612f0d600184613a79565b81518110612f1d57612f1d6138c5565b602002602001015160ff1681518110612f3857612f386138c5565b602002602001015160ff1684868581518110612f5657612f566138c5565b602002602001015160ff1681518110612f7157612f716138c5565b602002602001015160ff16105b15612f955780612f8d81613a99565b915050612ec7565b828114613023576000858281518110612fb057612fb06138c5565b60200260200101519050858481518110612fcc57612fcc6138c5565b6020026020010151868381518110612fe657612fe66138c5565b602002602001019060ff16908160ff16815250508086858151811061300d5761300d6138c5565b602002602001019060ff16908160ff1681525050505b5050505050565b600080805b63ffffffff8516156130955760018086169003613075578084836130528161399b565b945060ff1660208110613067576130676138c5565b60ff90921660209290920201525b60018563ffffffff16901c9450808061308d9061399b565b91505061302f565b60408051426020808301919091527fff0000000000000000000000000000000000000000000000000000000000000060f885811b8216848601527fffffffff0000000000000000000000000000000000000000000000000000000060e08b901b16604185015286901b166045830152825180830360260181526046909201909252805191012060009061312c9060ff85169061394b565b9050848160ff1660208110613143576131436138c5565b60200201519695505050505050565b61315b81612c7a565b6040516001600160a01b038216907fbc7cd75a20ee27fd9adebab32041f755214dbc6bffa90cc0225b39da2e5c2d3b90600090a250565b60606131b78383604051806060016040528060278152602001613b506027913961339d565b9392505050565b81818082036131ce5750506118fc565b6000858760026131de8888613a79565b6131e89190613aae565b6131f290886139ec565b81518110613202576132026138c5565b602002602001015160ff168151811061321d5761321d6138c5565b602002602001015190505b818313613375575b8060ff1686888581518110613247576132476138c5565b602002602001015160ff1681518110613262576132626138c5565b602002602001015160ff161015613285578261327d81613a48565b935050613230565b85878381518110613298576132986138c5565b602002602001015160ff16815181106132b3576132b36138c5565b602002602001015160ff168160ff1610156132da57816132d281613a99565b925050613285565b818313613370578682815181106132f3576132f36138c5565b602002602001015187848151811061330d5761330d6138c5565b6020026020010151888581518110613327576133276138c5565b60200260200101898581518110613340576133406138c5565b60ff9384166020918202929092010152911690528261335e81613a48565b935050818061336c90613a99565b9250505b613228565b8185121561338957613389878787856131be565b8383121561152e5761152e878785876131be565b6060600080856001600160a01b0316856040516133ba9190613b00565b600060405180830381855af49150503d80600081146133f5576040519150601f19603f3d011682016040523d82523d6000602084013e6133fa565b606091505b5091509150612996868383876060831561347557825160000361346e576001600160a01b0385163b61346e5760405162461bcd60e51b815260206004820152601d60248201527f416464726573733a2063616c6c20746f206e6f6e2d636f6e74726163740000006044820152606401610892565b5081612c72565b612c72838381511561348a5781518083602001fd5b8060405162461bcd60e51b81526004016108929190613b1c565b6040518061040001604052806020906020820280368337509192915050565b803560ff811681146110f757600080fd5b6000602082840312156134e657600080fd5b6131b7826134c3565b6020808252825182820181905260009190848201906040850190845b818110156135305783516001600160a01b03168352928401929184019160010161350b565b50909695505050505050565b80356001600160a01b03811681146110f757600080fd5b60006020828403121561356557600080fd5b6131b78261353c565b60006020828403121561358057600080fd5b5035919050565b634e487b7160e01b600052604160045260246000fd5b604051601f8201601f1916810167ffffffffffffffff811182821017156135c6576135c6613587565b604052919050565b600067ffffffffffffffff8211156135e8576135e8613587565b5060051b60200190565b600082601f83011261360357600080fd5b81356020613618613613836135ce565b61359d565b82815260059290921b8401810191818101908684111561363757600080fd5b8286015b848110156136595761364c816134c3565b835291830191830161363b565b509695505050505050565b6000806040838503121561367757600080fd5b823567ffffffffffffffff8082111561368f57600080fd5b61369b868387016135f2565b935060208501359150808211156136b157600080fd5b506136be858286016135f2565b9150509250929050565b600080604083850312156136db57600080fd5b6136e48361353c565b915060208084013567ffffffffffffffff8082111561370257600080fd5b818601915086601f83011261371657600080fd5b81358181111561372857613728613587565b61373a601f8201601f1916850161359d565b9150808252878482850101111561375057600080fd5b80848401858401376000848284010152508093505050509250929050565b6000806040838503121561378157600080fd5b61378a8361353c565b9150602083013563ffffffff811681146137a357600080fd5b809150509250929050565b600060208083850312156137c157600080fd5b823567ffffffffffffffff8111156137d857600080fd5b8301601f810185136137e957600080fd5b80356137f7613613826135ce565b81815260059190911b8201830190838101908783111561381657600080fd5b928401925b828410156126405761382c8461353c565b8252928401929084019061381b565b6020808252825182820181905260009190848201906040850190845b8181101561353057835163ffffffff1683529284019291840191600101613857565b60008060006060848603121561388e57600080fd5b833561ffff811681146138a057600080fd5b92506138ae6020850161353c565b91506138bc604085016134c3565b90509250925092565b634e487b7160e01b600052603260045260246000fd5b634e487b7160e01b600052601160045260246000fd5b600060018201613903576139036138db565b5060010190565b8082028115828204841417612dbf57612dbf6138db565b634e487b7160e01b600052601260045260246000fd5b60008261394657613946613921565b500490565b60008261395a5761395a613921565b500690565b80820180821115612dbf57612dbf6138db565b81810381811115612dbf57612dbf6138db565b634e487b7160e01b600052603160045260246000fd5b600060ff821660ff81036139b1576139b16138db565b60010192915050565b60ff8181168382160190811115612dbf57612dbf6138db565b6000602082840312156139e557600080fd5b5051919050565b8082018281126000831280158216821582161715613a0c57613a0c6138db565b505092915050565b600060ff821680613a2757613a276138db565b6000190192915050565b600081613a4057613a406138db565b506000190190565b60007f7fffffffffffffffffffffffffffffffffffffffffffffffffffffffffffffff8203613903576139036138db565b8181036000831280158383131683831282161715610826576108266138db565b6000600160ff1b8203613a4057613a406138db565b600082613abd57613abd613921565b600160ff1b821460001984141615613ad757613ad76138db565b500590565b60005b83811015613af7578181015183820152602001613adf565b50506000910152565b60008251613b12818460208701613adc565b9190910192915050565b6020815260008251806020840152613b3b816040850160208701613adc565b601f01601f1916919091016040019291505056fe416464726573733a206c6f772d6c6576656c2064656c65676174652063616c6c206661696c6564a26469706673582212208b49979b2f722eba21fe73a725f59b75c53ae7952a13f2732dd8e0c979721d1c64736f6c63430008110033",
  "linkReferences": {},
  "deployedLinkReferences": {}
}